{
  "address": "0x876939152C56362e17D508B9DEA77a3fDF9e4083",
  "abi": [
    {
      "inputs": [],
      "stateMutability": "nonpayable",
      "type": "constructor"
    },
    {
      "inputs": [],
      "name": "EnforcedPause",
      "type": "error"
    },
    {
      "inputs": [],
      "name": "ExpectedPause",
      "type": "error"
    },
    {
      "inputs": [],
      "name": "InvalidInitialization",
      "type": "error"
    },
    {
      "inputs": [],
      "name": "NotInitializing",
      "type": "error"
    },
    {
      "inputs": [
        {
          "internalType": "address",
          "name": "owner",
          "type": "address"
        }
      ],
      "name": "OwnableInvalidOwner",
      "type": "error"
    },
    {
      "inputs": [
        {
          "internalType": "address",
          "name": "account",
          "type": "address"
        }
      ],
      "name": "OwnableUnauthorizedAccount",
      "type": "error"
    },
    {
      "anonymous": false,
      "inputs": [
        {
          "indexed": false,
          "internalType": "uint64",
          "name": "version",
          "type": "uint64"
        }
      ],
      "name": "Initialized",
      "type": "event"
    },
    {
      "anonymous": false,
      "inputs": [
        {
          "indexed": true,
          "internalType": "address",
          "name": "previousOwner",
          "type": "address"
        },
        {
          "indexed": true,
          "internalType": "address",
          "name": "newOwner",
          "type": "address"
        }
      ],
      "name": "OwnershipTransferred",
      "type": "event"
    },
    {
      "anonymous": false,
      "inputs": [
        {
          "indexed": false,
          "internalType": "address",
          "name": "account",
          "type": "address"
        }
      ],
      "name": "Paused",
      "type": "event"
    },
    {
      "anonymous": false,
      "inputs": [
        {
          "indexed": false,
          "internalType": "address",
          "name": "account",
          "type": "address"
        }
      ],
      "name": "Unpaused",
      "type": "event"
    },
    {
      "inputs": [],
      "name": "WETH",
      "outputs": [
        {
          "internalType": "address",
          "name": "",
          "type": "address"
        }
      ],
      "stateMutability": "view",
      "type": "function"
    },
    {
      "inputs": [
        {
          "internalType": "uint256",
          "name": "newDeadline",
          "type": "uint256"
        }
      ],
      "name": "changeDeadline",
      "outputs": [],
      "stateMutability": "nonpayable",
      "type": "function"
    },
    {
      "inputs": [],
      "name": "deadline",
      "outputs": [
        {
          "internalType": "uint256",
          "name": "",
          "type": "uint256"
        }
      ],
      "stateMutability": "view",
      "type": "function"
    },
    {
      "inputs": [
        {
          "internalType": "address",
          "name": "_router",
          "type": "address"
        },
        {
          "internalType": "address",
          "name": "_quoter",
          "type": "address"
        },
        {
          "internalType": "address",
          "name": "_WETH",
          "type": "address"
        },
        {
          "internalType": "uint256",
          "name": "_deadline",
          "type": "uint256"
        }
      ],
      "name": "initialize",
      "outputs": [],
      "stateMutability": "nonpayable",
      "type": "function"
    },
    {
      "inputs": [],
      "name": "owner",
      "outputs": [
        {
          "internalType": "address",
          "name": "",
          "type": "address"
        }
      ],
      "stateMutability": "view",
      "type": "function"
    },
    {
      "inputs": [],
      "name": "pause",
      "outputs": [],
      "stateMutability": "nonpayable",
      "type": "function"
    },
    {
      "inputs": [],
      "name": "paused",
      "outputs": [
        {
          "internalType": "bool",
          "name": "",
          "type": "bool"
        }
      ],
      "stateMutability": "view",
      "type": "function"
    },
    {
      "inputs": [],
      "name": "quoter",
      "outputs": [
        {
          "internalType": "contract IQuoter",
          "name": "",
          "type": "address"
        }
      ],
      "stateMutability": "view",
      "type": "function"
    },
    {
      "inputs": [],
      "name": "renounceOwnership",
      "outputs": [],
      "stateMutability": "nonpayable",
      "type": "function"
    },
    {
      "inputs": [],
      "name": "router",
      "outputs": [
        {
          "internalType": "contract ISwapRouter",
          "name": "",
          "type": "address"
        }
      ],
      "stateMutability": "view",
      "type": "function"
    },
    {
      "inputs": [
        {
          "internalType": "address",
          "name": "token",
          "type": "address"
        },
        {
          "internalType": "uint256",
          "name": "amountOutMinimum",
          "type": "uint256"
        }
      ],
      "name": "swapEtherToToken",
      "outputs": [
        {
          "internalType": "uint256",
          "name": "",
          "type": "uint256"
        }
      ],
      "stateMutability": "payable",
      "type": "function"
    },
    {
      "inputs": [
        {
          "internalType": "address",
          "name": "newOwner",
          "type": "address"
        }
      ],
      "name": "transferOwnership",
      "outputs": [],
      "stateMutability": "nonpayable",
      "type": "function"
    },
    {
      "inputs": [],
      "name": "unpause",
      "outputs": [],
      "stateMutability": "nonpayable",
      "type": "function"
    }
  ],
  "transactionHash": "0xdf3cfb91bfdddd2870cc061aca98f1593355aa45ddd06703a22b220ce6e6d873",
  "args": [],
  "numDeployments": 1,
  "solcInputHash": "0256a6c5a6176ac995ab655811a46d90",
  "bytecode": "0x608060405234801561001057600080fd5b5061001961001e565b6100d0565b7ff0c57e16840df040f15088dc2f81fe391c3923bec73e23a9662efc9c229c6a00805468010000000000000000900460ff161561006e5760405163f92ee8a960e01b815260040160405180910390fd5b80546001600160401b03908116146100cd5780546001600160401b0319166001600160401b0390811782556040519081527fc7f505b2f371ae2175ee4913f4499e1f2633a7b5936321eed1cdaeb6115181d29060200160405180910390a15b50565b6109dc806100df6000396000f3fe6080604052600436106100c25760003560e01c80638456cb591161007f578063c6bbd5a711610059578063c6bbd5a714610205578063cf756fdf14610225578063f2fde38b14610245578063f887ea401461026557600080fd5b80638456cb591461017f5780638da5cb5b14610194578063ad5c4648146101e557600080fd5b806329dcb0cf146100c75780633f4ba83a146100f05780635c975abb14610107578063715018a6146101375780637a2a04561461014c5780637aca97b51461015f575b600080fd5b3480156100d357600080fd5b506100dd60035481565b6040519081526020015b60405180910390f35b3480156100fc57600080fd5b50610105610285565b005b34801561011357600080fd5b506000805160206109878339815191525460ff1660405190151581526020016100e7565b34801561014357600080fd5b50610105610297565b6100dd61015a36600461089c565b6102a9565b34801561016b57600080fd5b5061010561017a3660046108c6565b61045f565b34801561018b57600080fd5b5061010561046c565b3480156101a057600080fd5b507f9016d09d72d40fdae2fd8ceac6b6234c7706214fd39c1cd1e609a0528c199300546001600160a01b03165b6040516001600160a01b0390911681526020016100e7565b3480156101f157600080fd5b506002546101cd906001600160a01b031681565b34801561021157600080fd5b506001546101cd906001600160a01b031681565b34801561023157600080fd5b506101056102403660046108df565b61047c565b34801561025157600080fd5b5061010561026036600461092a565b6105d9565b34801561027157600080fd5b506000546101cd906001600160a01b031681565b61028d610617565b610295610672565b565b61029f610617565b61029560006106d2565b60006102b3610743565b6001600160a01b0383166103065760405162461bcd60e51b8152602060048201526015602482015274496e76616c696420746f6b656e206164647265737360581b60448201526064015b60405180910390fd5b600060035442610316919061094c565b60408051610100810182526002546001600160a01b03908116825287811660208301908152610bb88385019081523360608501908152608085018781523460a0870181815260c088018d8152600060e08a0181815281549b5163414bf38960e01b81528b518b16600482015298518a1660248a0152965162ffffff166044890152945188166064880152925160848701525160a4860152905160c48501529151841660e48401529596509294939091169163414bf389916101040160206040518083038185885af11580156103ef573d6000803e3d6000fd5b50505050506040513d601f19601f82011682018060405250810190610414919061096d565b9050600081116104545760405162461bcd60e51b815260206004820152600b60248201526a14ddd85c0819985a5b195960aa1b60448201526064016102fd565b925050505b92915050565b610467610617565b600355565b610474610617565b610295610774565b7ff0c57e16840df040f15088dc2f81fe391c3923bec73e23a9662efc9c229c6a008054600160401b810460ff16159067ffffffffffffffff166000811580156104c25750825b905060008267ffffffffffffffff1660011480156104df5750303b155b9050811580156104ed575080155b1561050b5760405163f92ee8a960e01b815260040160405180910390fd5b845467ffffffffffffffff19166001178555831561053557845460ff60401b1916600160401b1785555b600080546001600160a01b03808c166001600160a01b031992831617909255600180548b841690831617905560028054928a16929091169190911790556003869055610580336107bd565b6105886107ce565b83156105ce57845460ff60401b19168555604051600181527fc7f505b2f371ae2175ee4913f4499e1f2633a7b5936321eed1cdaeb6115181d29060200160405180910390a15b505050505050505050565b6105e1610617565b6001600160a01b03811661060b57604051631e4fbdf760e01b8152600060048201526024016102fd565b610614816106d2565b50565b336106497f9016d09d72d40fdae2fd8ceac6b6234c7706214fd39c1cd1e609a0528c199300546001600160a01b031690565b6001600160a01b0316146102955760405163118cdaa760e01b81523360048201526024016102fd565b61067a6107de565b600080516020610987833981519152805460ff191681557f5db9ee0a495bf2e6ff9c91a7834c1ba4fdd244a5e8aa4e537bd38aeae4b073aa335b6040516001600160a01b03909116815260200160405180910390a150565b7f9016d09d72d40fdae2fd8ceac6b6234c7706214fd39c1cd1e609a0528c19930080546001600160a01b031981166001600160a01b03848116918217845560405192169182907f8be0079c531659141344cd1fd0a4f28419497f9722a3daafe3b4186f6b6457e090600090a3505050565b6000805160206109878339815191525460ff16156102955760405163d93c066560e01b815260040160405180910390fd5b61077c610743565b600080516020610987833981519152805460ff191660011781557f62e78cea01bee320cd4e420270b5ea74000d11b0c9f74754ebdbfc544b05a258336106b4565b6107c561080e565b61061481610857565b6107d661080e565b61029561085f565b6000805160206109878339815191525460ff1661029557604051638dfc202b60e01b815260040160405180910390fd5b7ff0c57e16840df040f15088dc2f81fe391c3923bec73e23a9662efc9c229c6a0054600160401b900460ff1661029557604051631afcd79f60e31b815260040160405180910390fd5b6105e161080e565b61086761080e565b600080516020610987833981519152805460ff19169055565b80356001600160a01b038116811461089757600080fd5b919050565b600080604083850312156108af57600080fd5b6108b883610880565b946020939093013593505050565b6000602082840312156108d857600080fd5b5035919050565b600080600080608085870312156108f557600080fd5b6108fe85610880565b935061090c60208601610880565b925061091a60408601610880565b9396929550929360600135925050565b60006020828403121561093c57600080fd5b61094582610880565b9392505050565b8082018082111561045957634e487b7160e01b600052601160045260246000fd5b60006020828403121561097f57600080fd5b505191905056fecd5ed15c6e187e77e9aee88184c21f4f2182ab5827cb3b7e07fbedcd63f03300a2646970667358221220249c192d6c570d4de7b5af8760f627c50f62e434066a8903469c660a661fc4e664736f6c63430008140033",
  "devdoc": {
    "errors": {
      "EnforcedPause()": [
        {
          "details": "The operation failed because the contract is paused."
        }
      ],
      "ExpectedPause()": [
        {
          "details": "The operation failed because the contract is not paused."
        }
      ],
      "InvalidInitialization()": [
        {
          "details": "The contract is already initialized."
        }
      ],
      "NotInitializing()": [
        {
          "details": "The contract is not initializing."
        }
      ],
      "OwnableInvalidOwner(address)": [
        {
          "details": "The owner is not a valid owner account. (eg. `address(0)`)"
        }
      ],
      "OwnableUnauthorizedAccount(address)": [
        {
          "details": "The caller account is not authorized to perform an operation."
        }
      ]
    },
    "events": {
      "Initialized(uint64)": {
        "details": "Triggered when the contract has been initialized or reinitialized."
      },
      "Paused(address)": {
        "details": "Emitted when the pause is triggered by `account`."
      },
      "Unpaused(address)": {
        "details": "Emitted when the pause is lifted by `account`."
      }
    },
    "kind": "dev",
    "methods": {
      "changeDeadline(uint256)": {
        "params": {
          "newDeadline": "New deadline"
        }
      },
      "initialize(address,address,address,uint256)": {
        "params": {
          "_WETH": "Address of the WETH",
          "_deadline": "Deadline for the swap",
          "_quoter": "Address of the Uniswap V3 quoter",
          "_router": "Address of the Uniswap V3 router"
        }
      },
      "owner()": {
        "details": "Returns the address of the current owner."
      },
      "paused()": {
        "details": "Returns true if the contract is paused, and false otherwise."
      },
      "renounceOwnership()": {
        "details": "Leaves the contract without owner. It will not be possible to call `onlyOwner` functions. Can only be called by the current owner. NOTE: Renouncing ownership will leave the contract without an owner, thereby disabling any functionality that is only available to the owner."
      },
      "swapEtherToToken(address,uint256)": {
        "params": {
          "amountOutMinimum": "Minimum amount of token to receive",
          "token": "Address of the token to swap to"
        },
        "returns": {
          "_0": "amountOut Amount of token received"
        }
      },
      "transferOwnership(address)": {
        "details": "Transfers ownership of the contract to a new account (`newOwner`). Can only be called by the current owner."
      }
    },
    "version": 1
  },
  "userdoc": {
    "kind": "user",
    "methods": {
      "changeDeadline(uint256)": {
        "notice": "Function to change the deadline"
      },
      "constructor": {
        "notice": "Disables the default constructor"
      },
      "pause()": {
        "notice": "Function to pause the contract"
      },
      "swapEtherToToken(address,uint256)": {
        "notice": "Function to swap ether to token"
      },
      "unpause()": {
        "notice": "Function to unpause the contract"
      }
    },
    "version": 1
  },
  "storageLayout": {
    "storage": [
      {
        "astId": 936,
        "contract": "contracts/Swapper.sol:Swapper",
        "label": "router",
        "offset": 0,
        "slot": "0",
        "type": "t_contract(ISwapRouter)919"
      },
      {
        "astId": 939,
        "contract": "contracts/Swapper.sol:Swapper",
        "label": "quoter",
        "offset": 0,
        "slot": "1",
        "type": "t_contract(IQuoter)819"
      },
      {
        "astId": 941,
        "contract": "contracts/Swapper.sol:Swapper",
        "label": "WETH",
        "offset": 0,
        "slot": "2",
        "type": "t_address"
      },
      {
        "astId": 943,
        "contract": "contracts/Swapper.sol:Swapper",
        "label": "deadline",
        "offset": 0,
        "slot": "3",
        "type": "t_uint256"
      }
    ],
    "types": {
      "t_address": {
        "encoding": "inplace",
        "label": "address",
        "numberOfBytes": "20"
      },
      "t_contract(IQuoter)819": {
        "encoding": "inplace",
        "label": "contract IQuoter",
        "numberOfBytes": "20"
      },
      "t_contract(ISwapRouter)919": {
        "encoding": "inplace",
        "label": "contract ISwapRouter",
        "numberOfBytes": "20"
      },
      "t_uint256": {
        "encoding": "inplace",
        "label": "uint256",
        "numberOfBytes": "32"
      }
    }
  }
}