{
  "address": "0x130d3BB53B9d7e1F33B00AbC5F43c18329f73dDf",
  "abi": [
    {
      "inputs": [],
      "stateMutability": "nonpayable",
      "type": "constructor"
    },
    {
      "inputs": [],
      "name": "InvalidInitialization",
      "type": "error"
    },
    {
      "inputs": [],
      "name": "NotInitializing",
      "type": "error"
    },
    {
      "anonymous": false,
      "inputs": [
        {
          "indexed": false,
          "internalType": "uint64",
          "name": "version",
          "type": "uint64"
        }
      ],
      "name": "Initialized",
      "type": "event"
    },
    {
      "inputs": [],
      "name": "WETH",
      "outputs": [
        {
          "internalType": "address",
          "name": "",
          "type": "address"
        }
      ],
      "stateMutability": "view",
      "type": "function"
    },
    {
      "inputs": [
        {
          "internalType": "uint256",
          "name": "newDeadline",
          "type": "uint256"
        }
      ],
      "name": "changeDeadline",
      "outputs": [],
      "stateMutability": "nonpayable",
      "type": "function"
    },
    {
      "inputs": [],
      "name": "deadline",
      "outputs": [
        {
          "internalType": "uint256",
          "name": "",
          "type": "uint256"
        }
      ],
      "stateMutability": "view",
      "type": "function"
    },
    {
      "inputs": [
        {
          "internalType": "address",
          "name": "_router",
          "type": "address"
        },
        {
          "internalType": "address",
          "name": "_quoter",
          "type": "address"
        },
        {
          "internalType": "address",
          "name": "_WETH",
          "type": "address"
        },
        {
          "internalType": "uint256",
          "name": "_deadline",
          "type": "uint256"
        }
      ],
      "name": "initialize",
      "outputs": [],
      "stateMutability": "nonpayable",
      "type": "function"
    },
    {
      "inputs": [],
      "name": "quoter",
      "outputs": [
        {
          "internalType": "contract IQuoter",
          "name": "",
          "type": "address"
        }
      ],
      "stateMutability": "view",
      "type": "function"
    },
    {
      "inputs": [],
      "name": "router",
      "outputs": [
        {
          "internalType": "contract ISwapRouter",
          "name": "",
          "type": "address"
        }
      ],
      "stateMutability": "view",
      "type": "function"
    },
    {
      "inputs": [
        {
          "internalType": "address",
          "name": "token",
          "type": "address"
        },
        {
          "internalType": "uint256",
          "name": "amountOutMinimum",
          "type": "uint256"
        }
      ],
      "name": "swapEtherToToken",
      "outputs": [
        {
          "internalType": "uint256",
          "name": "",
          "type": "uint256"
        }
      ],
      "stateMutability": "payable",
      "type": "function"
    }
  ],
  "transactionHash": "0x82883b194b05e43f0bfc5bbc0e9162e5dffdc85f7d6a90a19b50aae79435d128",
  "args": [],
  "numDeployments": 1,
  "solcInputHash": "6c37a69ab2e58d4857b6c5833bef8be3",
  "bytecode": "0x608060405234801561001057600080fd5b5061001961001e565b6100d0565b7ff0c57e16840df040f15088dc2f81fe391c3923bec73e23a9662efc9c229c6a00805468010000000000000000900460ff161561006e5760405163f92ee8a960e01b815260040160405180910390fd5b80546001600160401b03908116146100cd5780546001600160401b0319166001600160401b0390811782556040519081527fc7f505b2f371ae2175ee4913f4499e1f2633a7b5936321eed1cdaeb6115181d29060200160405180910390a15b50565b610706806100df6000396000f3fe6080604052600436106100705760003560e01c8063ad5c46481161004e578063ad5c4648146100d3578063c6bbd5a71461010b578063cf756fdf1461012b578063f887ea401461014b57600080fd5b806329dcb0cf146100755780637a2a04561461009e5780637aca97b5146100b1575b600080fd5b34801561008157600080fd5b5061008b60035481565b6040519081526020015b60405180910390f35b61008b6100ac3660046105b3565b61016b565b3480156100bd57600080fd5b506100d16100cc3660046105dd565b600355565b005b3480156100df57600080fd5b506002546100f3906001600160a01b031681565b6040516001600160a01b039091168152602001610095565b34801561011757600080fd5b506001546100f3906001600160a01b031681565b34801561013757600080fd5b506100d16101463660046105f6565b61044b565b34801561015757600080fd5b506000546100f3906001600160a01b031681565b60006001600160a01b0383166101c05760405162461bcd60e51b8152602060048201526015602482015274496e76616c696420746f6b656e206164647265737360581b60448201526064015b60405180910390fd5b6000600354426101d09190610641565b600254604080516bffffffffffffffffffffffff19606093841b811660208301529288901b909216603483015280518083036028018152604883019182905260015463cdca175360e01b9092529293506000916001600160a01b039091169063cdca1753906102459085903490604c01610662565b6020604051808303816000875af1158015610264573d6000803e3d6000fd5b505050506040513d601f19601f8201168201806040525081019061028891906106b7565b9050848110156103005760405162461bcd60e51b815260206004820152603860248201527f457374696d6174656420616d6f756e74206f7574206973206c6573732074686160448201527f6e20746865206d696e696d756d20616d6f756e74206f7574000000000000000060648201526084016101b7565b60408051610100810182526002546001600160a01b0390811682528881166020830190815262ffffff8581168486019081523360608601908152608086018a81523460a0880181815260c089018f8152600060e08b0181815281549c5163414bf38960e01b81528c518c16600482015299518b1660248b01529651909716604489015293518816606488015291516084870152905160a4860152905160c48501529051841660e48401529394909392169163414bf389916101040160206040518083038185885af11580156103d9573d6000803e3d6000fd5b50505050506040513d601f19601f820116820180604052508101906103fe91906106b7565b90506000811161043e5760405162461bcd60e51b815260206004820152600b60248201526a14ddd85c0819985a5b195960aa1b60448201526064016101b7565b9450505050505b92915050565b7ff0c57e16840df040f15088dc2f81fe391c3923bec73e23a9662efc9c229c6a008054600160401b810460ff16159067ffffffffffffffff166000811580156104915750825b905060008267ffffffffffffffff1660011480156104ae5750303b155b9050811580156104bc575080155b156104da5760405163f92ee8a960e01b815260040160405180910390fd5b845467ffffffffffffffff19166001178555831561050457845460ff60401b1916600160401b1785555b600080546001600160a01b03808c166001600160a01b031992831617909255600180548b841690831617905560028054928a16929091169190911790556003869055831561058c57845460ff60401b19168555604051600181527fc7f505b2f371ae2175ee4913f4499e1f2633a7b5936321eed1cdaeb6115181d29060200160405180910390a15b505050505050505050565b80356001600160a01b03811681146105ae57600080fd5b919050565b600080604083850312156105c657600080fd5b6105cf83610597565b946020939093013593505050565b6000602082840312156105ef57600080fd5b5035919050565b6000806000806080858703121561060c57600080fd5b61061585610597565b935061062360208601610597565b925061063160408601610597565b9396929550929360600135925050565b8082018082111561044557634e487b7160e01b600052601160045260246000fd5b604081526000835180604084015260005b818110156106905760208187018101516060868401015201610673565b506000606082850101526060601f19601f8301168401019150508260208301529392505050565b6000602082840312156106c957600080fd5b505191905056fea264697066735822122095e1ee112f55a4ebd225f589001ed37a40634ce5ca4322763f08812e94a22b9e64736f6c63430008140033",
  "devdoc": {
    "errors": {
      "InvalidInitialization()": [
        {
          "details": "The contract is already initialized."
        }
      ],
      "NotInitializing()": [
        {
          "details": "The contract is not initializing."
        }
      ]
    },
    "events": {
      "Initialized(uint64)": {
        "details": "Triggered when the contract has been initialized or reinitialized."
      }
    },
    "kind": "dev",
    "methods": {},
    "version": 1
  },
  "userdoc": {
    "kind": "user",
    "methods": {},
    "version": 1
  },
  "storageLayout": {
    "storage": [
      {
        "astId": 513,
        "contract": "contracts/Swapper.sol:Swapper",
        "label": "router",
        "offset": 0,
        "slot": "0",
        "type": "t_contract(ISwapRouter)502"
      },
      {
        "astId": 516,
        "contract": "contracts/Swapper.sol:Swapper",
        "label": "quoter",
        "offset": 0,
        "slot": "1",
        "type": "t_contract(IQuoter)402"
      },
      {
        "astId": 518,
        "contract": "contracts/Swapper.sol:Swapper",
        "label": "WETH",
        "offset": 0,
        "slot": "2",
        "type": "t_address"
      },
      {
        "astId": 520,
        "contract": "contracts/Swapper.sol:Swapper",
        "label": "deadline",
        "offset": 0,
        "slot": "3",
        "type": "t_uint256"
      }
    ],
    "types": {
      "t_address": {
        "encoding": "inplace",
        "label": "address",
        "numberOfBytes": "20"
      },
      "t_contract(IQuoter)402": {
        "encoding": "inplace",
        "label": "contract IQuoter",
        "numberOfBytes": "20"
      },
      "t_contract(ISwapRouter)502": {
        "encoding": "inplace",
        "label": "contract ISwapRouter",
        "numberOfBytes": "20"
      },
      "t_uint256": {
        "encoding": "inplace",
        "label": "uint256",
        "numberOfBytes": "32"
      }
    }
  }
}