{
  "address": "0x2F2a4Efa5709a5e334Be4a97B4560516aC97314C",
  "abi": [
    {
      "inputs": [],
      "stateMutability": "nonpayable",
      "type": "constructor"
    },
    {
      "anonymous": false,
      "inputs": [
        {
          "indexed": false,
          "internalType": "uint8",
          "name": "version",
          "type": "uint8"
        }
      ],
      "name": "Initialized",
      "type": "event"
    },
    {
      "inputs": [],
      "name": "WETH",
      "outputs": [
        {
          "internalType": "address",
          "name": "",
          "type": "address"
        }
      ],
      "stateMutability": "view",
      "type": "function"
    },
    {
      "inputs": [
        {
          "internalType": "uint256",
          "name": "newDeadline",
          "type": "uint256"
        }
      ],
      "name": "changeDeadline",
      "outputs": [],
      "stateMutability": "nonpayable",
      "type": "function"
    },
    {
      "inputs": [],
      "name": "deadline",
      "outputs": [
        {
          "internalType": "uint256",
          "name": "",
          "type": "uint256"
        }
      ],
      "stateMutability": "view",
      "type": "function"
    },
    {
      "inputs": [
        {
          "internalType": "address",
          "name": "_router",
          "type": "address"
        },
        {
          "internalType": "address",
          "name": "_quoter",
          "type": "address"
        },
        {
          "internalType": "address",
          "name": "_WETH",
          "type": "address"
        },
        {
          "internalType": "uint256",
          "name": "_deadline",
          "type": "uint256"
        }
      ],
      "name": "initialize",
      "outputs": [],
      "stateMutability": "nonpayable",
      "type": "function"
    },
    {
      "inputs": [],
      "name": "quoter",
      "outputs": [
        {
          "internalType": "contract IQuoter",
          "name": "",
          "type": "address"
        }
      ],
      "stateMutability": "view",
      "type": "function"
    },
    {
      "inputs": [],
      "name": "router",
      "outputs": [
        {
          "internalType": "contract ISwapRouter",
          "name": "",
          "type": "address"
        }
      ],
      "stateMutability": "view",
      "type": "function"
    },
    {
      "inputs": [
        {
          "internalType": "address",
          "name": "token",
          "type": "address"
        },
        {
          "internalType": "uint256",
          "name": "amountOutMinimum",
          "type": "uint256"
        }
      ],
      "name": "swapEtherToToken",
      "outputs": [
        {
          "internalType": "uint256",
          "name": "",
          "type": "uint256"
        }
      ],
      "stateMutability": "payable",
      "type": "function"
    }
  ],
  "transactionHash": "0x3306d528dcbf92fe08a109edb0d6df00136b33ded88a07ce0d3f42d5ba47aa9d",
  "args": [],
  "numDeployments": 1,
  "solcInputHash": "781855e72034ddb15ff405ba8164b43a",
  "bytecode": "0x608060405234801561001057600080fd5b5061001961001e565b6100dd565b600054610100900460ff161561008a5760405162461bcd60e51b815260206004820152602760248201527f496e697469616c697a61626c653a20636f6e747261637420697320696e697469604482015266616c697a696e6760c81b606482015260840160405180910390fd5b60005460ff908116146100db576000805460ff191660ff9081179091556040519081527f7f26b83ff96e1f2b6a682f133852f6798a09c465da95921460cefb38474024989060200160405180910390a15b565b61072b806100ec6000396000f3fe6080604052600436106100705760003560e01c8063ad5c46481161004e578063ad5c4648146100d3578063c6bbd5a71461010b578063cf756fdf1461012b578063f887ea401461014b57600080fd5b806329dcb0cf146100755780637a2a04561461009e5780637aca97b5146100b1575b600080fd5b34801561008157600080fd5b5061008b60035481565b6040519081526020015b60405180910390f35b61008b6100ac3660046105d8565b610171565b3480156100bd57600080fd5b506100d16100cc366004610602565b600355565b005b3480156100df57600080fd5b506002546100f3906001600160a01b031681565b6040516001600160a01b039091168152602001610095565b34801561011757600080fd5b506001546100f3906001600160a01b031681565b34801561013757600080fd5b506100d161014636600461061b565b610459565b34801561015757600080fd5b506000546100f3906201000090046001600160a01b031681565b60006001600160a01b0383166101c65760405162461bcd60e51b8152602060048201526015602482015274496e76616c696420746f6b656e206164647265737360581b60448201526064015b60405180910390fd5b6000600354426101d69190610666565b600254604080516bffffffffffffffffffffffff19606093841b811660208301529288901b909216603483015280518083036028018152604883019182905260015463cdca175360e01b9092529293506000916001600160a01b039091169063cdca17539061024b9085903490604c01610687565b6020604051808303816000875af115801561026a573d6000803e3d6000fd5b505050506040513d601f19601f8201168201806040525081019061028e91906106dc565b9050848110156103065760405162461bcd60e51b815260206004820152603860248201527f457374696d6174656420616d6f756e74206f7574206973206c6573732074686160448201527f6e20746865206d696e696d756d20616d6f756e74206f7574000000000000000060648201526084016101bd565b60408051610100810182526002546001600160a01b0390811682528881166020830190815262ffffff8581168486019081523360608601908152608086018a81523460a0880181815260c089018f8152600060e08b0181815281549c5163414bf38960e01b81528c518c16600482015299518b1660248b01529651909716604489015293518816606488015291516084870152905160a4860152905160c48501529051841660e484015293949093620100009091049092169163414bf389916101040160206040518083038185885af11580156103e7573d6000803e3d6000fd5b50505050506040513d601f19601f8201168201806040525081019061040c91906106dc565b90506000811161044c5760405162461bcd60e51b815260206004820152600b60248201526a14ddd85c0819985a5b195960aa1b60448201526064016101bd565b9450505050505b92915050565b600054610100900460ff16158080156104795750600054600160ff909116105b806104935750303b158015610493575060005460ff166001145b6104f65760405162461bcd60e51b815260206004820152602e60248201527f496e697469616c697a61626c653a20636f6e747261637420697320616c72656160448201526d191e481a5b9a5d1a585b1a5e995960921b60648201526084016101bd565b6000805460ff191660011790558015610519576000805461ff0019166101001790555b600080546001600160a01b03808816620100000262010000600160b01b031990921691909117909155600180548683166001600160a01b0319918216179091556002805492861692909116919091179055600382905580156105b5576000805461ff0019169055604051600181527f7f26b83ff96e1f2b6a682f133852f6798a09c465da95921460cefb38474024989060200160405180910390a15b5050505050565b80356001600160a01b03811681146105d357600080fd5b919050565b600080604083850312156105eb57600080fd5b6105f4836105bc565b946020939093013593505050565b60006020828403121561061457600080fd5b5035919050565b6000806000806080858703121561063157600080fd5b61063a856105bc565b9350610648602086016105bc565b9250610656604086016105bc565b9396929550929360600135925050565b8082018082111561045357634e487b7160e01b600052601160045260246000fd5b604081526000835180604084015260005b818110156106b55760208187018101516060868401015201610698565b506000606082850101526060601f19601f8301168401019150508260208301529392505050565b6000602082840312156106ee57600080fd5b505191905056fea264697066735822122046472a5c9ffa235dbf1b47c958248a0bec17ba83989bc824d9a759d817b430f164736f6c63430008140033",
  "devdoc": {
    "events": {
      "Initialized(uint8)": {
        "details": "Triggered when the contract has been initialized or reinitialized."
      }
    },
    "kind": "dev",
    "methods": {},
    "version": 1
  },
  "userdoc": {
    "kind": "user",
    "methods": {},
    "version": 1
  },
  "storageLayout": {
    "storage": [
      {
        "astId": 139,
        "contract": "contracts/Swapper.sol:Swapper",
        "label": "_initialized",
        "offset": 0,
        "slot": "0",
        "type": "t_uint8"
      },
      {
        "astId": 142,
        "contract": "contracts/Swapper.sol:Swapper",
        "label": "_initializing",
        "offset": 1,
        "slot": "0",
        "type": "t_bool"
      },
      {
        "astId": 1871,
        "contract": "contracts/Swapper.sol:Swapper",
        "label": "router",
        "offset": 2,
        "slot": "0",
        "type": "t_contract(ISwapRouter)1860"
      },
      {
        "astId": 1874,
        "contract": "contracts/Swapper.sol:Swapper",
        "label": "quoter",
        "offset": 0,
        "slot": "1",
        "type": "t_contract(IQuoter)1760"
      },
      {
        "astId": 1876,
        "contract": "contracts/Swapper.sol:Swapper",
        "label": "WETH",
        "offset": 0,
        "slot": "2",
        "type": "t_address"
      },
      {
        "astId": 1878,
        "contract": "contracts/Swapper.sol:Swapper",
        "label": "deadline",
        "offset": 0,
        "slot": "3",
        "type": "t_uint256"
      }
    ],
    "types": {
      "t_address": {
        "encoding": "inplace",
        "label": "address",
        "numberOfBytes": "20"
      },
      "t_bool": {
        "encoding": "inplace",
        "label": "bool",
        "numberOfBytes": "1"
      },
      "t_contract(IQuoter)1760": {
        "encoding": "inplace",
        "label": "contract IQuoter",
        "numberOfBytes": "20"
      },
      "t_contract(ISwapRouter)1860": {
        "encoding": "inplace",
        "label": "contract ISwapRouter",
        "numberOfBytes": "20"
      },
      "t_uint256": {
        "encoding": "inplace",
        "label": "uint256",
        "numberOfBytes": "32"
      },
      "t_uint8": {
        "encoding": "inplace",
        "label": "uint8",
        "numberOfBytes": "1"
      }
    }
  }
}